:02000002B0004C
:1040000000400B006AA50B00000006000C00050232
:084010000401B41400000000DB
:044018005C8F0B00AE
:1040200081F0004102E000BF83F0004330B54FEA69
:1040300041044FEA430594EA050F08BF90EA020FD6
:104040001FBF54EA000C55EA020C7FEA645C7FEA69
:10405000655C00F0E2804FEA5454D4EB5555B8BF8C
:104060006D420CDD2C4480EA020281EA030382EAFD
:10407000000083EA010180EA020281EA0303362D8F
:1040800088BF30BD11F0004F4FEA01314FF4801C62
:104090004CEA113102D0404261EB410113F0004F74
:1040A0004FEA03334CEA133302D0524263EB43032B
:1040B00094EA050F00F0A780A4F10104D5F1200EC9
:1040C0000DDB02FA0EFC22FA05F2801841F1000124
:1040D00003FA0EF2801843FA05F359410EE0A5F1F8
:1040E00020050EF1200E012A03FA0EFC28BF4CF029
:1040F000020C43FA05F3C01851EBE37101F00045DF
:1041000007D54FF0000EDCF1000C7EEB00006EEBEB
:104110000101B1F5801F1BD3B1F5001F0CD3490875
:104120005FEA30004FEA3C0C04F101044FEA4452CC
:1041300012F5800F80F09A80BCF1004F08BF5FEA53
:10414000500C50F1000041EB045141EA050130BD33
:104150005FEA4C0C404141EB0101013C28BFB1F545
:10416000801FE9D291F0000F04BF01460020B1FA90
:1041700081F308BF2033A3F10B03B3F120020CDA63
:104180000C3208DD02F1140CC2F10C0201FA0CF041
:1041900021FA02F10CE002F11402D8BFC2F1200CA6
:1041A00001FA02F120FA0CFCDCBF41EA0C0190405C
:1041B000E41AA2BF01EB0451294330BD6FEA0404A5
:1041C0001F3C1CDA0C340EDC04F11404C4F1200290
:1041D00020FA04F001FA02F340EA030021FA04F3A2
:1041E00045EA030130BDC4F10C04C4F1200220FAF9
:1041F00002F001FA04F340EA0300294630BD21FA37
:1042000004F0294630BD94F0000F83F4801306BFFC
:1042100081F480110134013D4EE77FEA645C18BFF0
:104220007FEA655C29D094EA050F08BF90EA020F87
:1042300005D054EA000C04BF1946104630BD91EA7F
:10424000030F1EBF0021002030BD5FEA545C05D182
:104250004000494128BF41F0004130BD14F58004C1
:104260003CBF01F5801130BD01F0004545F0FE4135
:1042700041F470014FF0000030BD7FEA645C1ABF6A
:10428000194610467FEA655C1CBF0B46024650EAA1
:10429000013406BF52EA033591EA030F41F40021CD
:1042A00030BD00BF90F0000F04BF0021704730B553
:1042B0004FF4806404F132044FF000054FF0000128
:1042C00050E700BF90F0000F04BF0021704730B5E9
:1042D0004FF4806404F1320410F0004548BF4042BE
:1042E0004FF000013EE700BF42004FEAE2014FEA13
:1042F00031014FEA02701FBF12F07F4393F07F4FEE
:1043000081F06051704732F07F4208BF704793F0F0
:104310007F4F04BF41F40021704730B54FF4607403
:1043200001F0004521F000411CE700BF50EA010206
:1043300008BF704730B54FF000050AE050EA0102AF
:1043400008BF704730B511F0004502D5404261EB1F
:1043500041014FF4806404F132045FEA915C3FF460
:10436000D8AE4FF003025FEADC0C18BF03325FEAFD
:10437000DC0C18BF033202EBDC02C2F1200300FAAE
:1043800003FC20FA02F001FA03FE40EA0E0021FAD3
:1043900002F11444BDE600BF70B54FF0FF0C4CF4C1
:1043A000E06C1CEA11541DBF1CEA135594EA0C0F73
:1043B00095EA0C0F00F0DEF82C4481EA030621EAAE
:1043C0004C5123EA4C5350EA013518BF52EA0335E9
:1043D00041F4801143F4801338D0A0FB02CE4FF09B
:1043E0000005E1FB02E506F00042E0FB03E54FF0CB
:1043F0000006E1FB03569CF0000F18BF4EF0010EC3
:10440000A4F1FF04B6F5007F64F5407404D25FEABE
:104410004E0E6D4146EB060642EAC62141EA555171
:104420004FEAC52040EA5E504FEACE2EB4F1FD0CB3
:1044300088BFBCF5E06F1ED8BEF1004F08BF5FEA31
:10444000500E50F1000041EB045170BD06F00046E3
:1044500046EA010140EA020081EA0301B4EB5C0490
:10446000C2BFD4EB0C0541EA045170BD41F4801188
:104470004FF0000E013C00F3AB8014F1360FDEBFAD
:10448000002001F0004170BDC4F10004203C35DA89
:104490000C341BDC04F11404C4F1200500FA05F30C
:1044A00020FA04F001FA05F240EA020001F00042AD
:1044B00021F0004110EBD37021FA04F642EB060123
:1044C0005EEA430E08BF20EAD37070BDC4F10C044D
:1044D000C4F1200500FA04F320FA05F001FA04F211
:1044E00040EA020001F0004110EBD37041F10001FD
:1044F0005EEA430E08BF20EAD37070BDC4F1200508
:1045000000FA05F24EEA020E20FA04F301FA05F26F
:1045100043EA020321FA04F001F0004121FA04F217
:1045200020EA020000EBD3705EEA430E08BF20EAE7
:10453000D37070BD94F0000F0FD101F00046400021
:1045400041EB010111F4801F08BF013CF7D041EAA3
:10455000060195F0000F18BF704703F000465200A7
:1045600043EB030313F4801F08BF013DF7D043EA78
:104570000603704794EA0C0F0CEA135518BF95EA2E
:104580000C0F0CD050EA410618BF52EA4306D1D1B5
:1045900081EA030101F000414FF0000070BD50EAD4
:1045A000410606BF1046194652EA430619D094EA5E
:1045B0000C0F02D150EA013613D195EA0C0F05D148
:1045C00052EA03361CBF104619460AD181EA03019C
:1045D00001F0004141F0FE4141F470014FF0000054
:1045E00070BD41F0FE4141F4780170BD70B54FF0EF
:1045F000FF0C4CF4E06C1CEA11541DBF1CEA13556F
:1046000094EA0C0F95EA0C0F00F0A7F8A4EB050450
:1046100081EA030E52EA03354FEA013100F0888047
:104620004FEA03334FF0805545EA131343EA126310
:104630004FEA022245EA111545EA10654FEA0026C5
:104640000EF000419D4208BF964244F1FD0404F57E
:10465000407402D25B084FEA3202B61A65EB0305DA
:104660005B084FEA32024FF480104FF4002CB6EB97
:10467000020E75EB030E22BFB61A754640EA0C0017
:104680005B084FEA3202B6EB020E75EB030E22BF57
:10469000B61A754640EA5C005B084FEA3202B6EB98
:1046A000020E75EB030E22BFB61A754640EA9C0057
:1046B0005B084FEA3202B6EB020E75EB030E22BF27
:1046C000B61A754640EADC0055EA060E18D04FEAE5
:1046D000051545EA16754FEA06164FEAC30343EA85
:1046E00052734FEAC2025FEA1C1CC0D111F4801F52
:1046F0000BD141EA00014FF000004FF0004CB6E74B
:1047000011F4801F04BF01430020B4F1FD0C88BFE9
:10471000BCF5E06F3FF6AFAEB5EB030C04BFB6EBF4
:10472000020C5FEA500C50F1000041EB045170BDE7
:104730000EF0004E4EEA113114EB5C04C2BFD4EB14
:104740000C0541EA045170BD41F480114FF0000E98
:10475000013C90E645EA060E8DE60CEA135594EA14
:104760000C0F08BF95EA0C0F3FF43BAF94EA0C0F17
:104770000AD150EA01347FF434AF95EA0C0F7FF48C
:1047800025AF104619462CE795EA0C0F06D152EAE0
:1047900003353FF4FDAE1046194622E750EA4106C4
:1047A00018BF52EA43067FF4C5AE50EA41047FF4D5
:1047B0000DAF52EA43057FF4EBAE12E74FF0FF3C3A
:1047C00006E000BF4FF0010C02E000BF4FF0010C0B
:1047D0004DF804CD4FEA410C7FEA6C5C4FEA430C84
:1047E00018BF7FEA6C5C1BD001B050EA410C0CBFD3
:1047F00052EA430C91EA030F02BF90EA020F002035
:10480000704710F1000F91EA030F58BF994208BF9B
:1048100090422CBFD8176FEAE37040F00100704758
:104820004FEA410C7FEA6C5C02D150EA013C07D1AF
:104830004FEA430C7FEA6C5CD6D152EA033CD3D0FA
:104840005DF8040B704700BF8446104662468C46F4
:104850001946634600E000BF01B5FFF7B7FF002827
:1048600048BF10F1000F01BD4DF808EDFFF7F4FF50
:104870000CBF012000205DF808FB00BF4DF808EDDB
:10488000FFF7EAFF34BF012000205DF808FB00BFFE
:104890004DF808EDFFF7E0FF94BF012000205DF820
:1048A00008FB00BF4DF808EDFFF7CEFF94BF0120D5
:1048B00000205DF808FB00BF4DF808EDFFF7C4FFCE
:1048C00034BF012000205DF808FB00BF4FEA410C17
:1048D0007FEA6C5C02D150EA013C0AD14FEA430CFA
:1048E0007FEA6C5C02D152EA033C02D14FF0000037
:1048F00070474FF0010070474FEA410212F5001275
:1049000015D211D56FF47873B3EB625212D94FEA16
:10491000C12343F0004343EA505311F0004F23FA00
:1049200002F018BF404270474FF00000704750EA55
:10493000013005D111F0004008BF6FF00040704712
:104940004FF00000704700BF4A0011D212F500126C
:1049500011D20DD56FF47873B3EB62520ED44FEAD7
:10496000C12343F0004343EA505323FA02F0704757
:104970004FF00000704750EA013002D14FF0FF3095
:1049800070474FF00000704710F8012B11F8013B01
:10499000012A28BF9A42F7D0D01A7047034613F86D
:1049A000012B002AFBD1181A0138704709480A491F
:1049B000884208B505D0094A824202D0121A04F092
:1049C00083F90748074A0021121A04F08BF90148BD
:1049D00008BD00BF18E50320CCA40B0088E5032028
:1049E00088E50320F0E7032070B5074E074C03F07D
:1049F00031F9A41BA4080025AC4200D170BD56F8C3
:104A0000043B98470135F7E784A40B00A8A40B00EA
:104A100000F000BF08B500F0C7FDBDE8084003F096
:104A2000D1B802F09BBD02F099BD02F09FBD00001D
:104A300008B5034A03490C2002F0E4FCFEE700BF7E
:104A400075700B00708F0B000078B0FA80F0400991
:104A50007047012303707047014B00221A707047A2
:104A60006CE60320436913B183690C301847704723
:104A700013B500210446084602F014FB002320462B
:104A800001A9019302F026FB019C0CB101232371C3
:104A90000021012002F006FB2CB1236820469B6810
:104AA00098470023237102B010BD70B50C1E064656
:104AB00015460BDA0A2A09D12D2102F0D1FE6142F6
:104AC000EAB23046BDE8704002F0E3BE2146F7E7A7
:104AD000012A02D1016000207047022A04BF0B683E
:104AE0000360F8E70368184708B502F0CBFA034BF8
:104AF0001860BDE8084002F021BD00BF40E7032078
:104B000010B58368044613B1032201469847204636
:104B100010BD000037B5134B036004468068C8B170
:104B200000256FF00043CDE9003502212B462A46CF
:104B300002F0D8FAA068294602F0F4FA237903F0CB
:104B4000FF0513B102F0A6FAF8E7A068294602F0C3
:104B5000B9FAA56004F10C00FFF7D2FF204603B0BC
:104B600030BD00BF38900B0010B50446FFF7D2FFF0
:104B700020461C21FFF759FF204610BD03682BB1CA
:104B80004268934202D2184604F096B8002070475B
:104B900038B50568044645B143689D4205D22846AC
:104BA000FFF7FCFE013005442560204638BDF8B50E
:104BB000044647680D4621B903687A1C4260D955FE
:104BC000F8BD0846FFF7EAFEA368461CF2199A42B0
:104BD000F6D8206832462946384404F075F86068F3
:104BE00030446060ECE7000038B504460B46D0E97D
:104BF00001012568044A091A284402F0BFFC6368D1
:104C000001300344636038BD858F0B0038B504461E
:104C10000B46D0E901012568044A091A284402F02C
:104C2000ADFC636801300344636038BD888F0B00BE
:104C300010B5074C204601F099FE0121204601F0F5
:104C4000D4FA00224FF00113C4E9042310BD00BFC1
:104C5000F0E50320114B13B501221A70104CFFF739
:104C6000E7FF1049104802F00AFE0F4802F0ECF886
:104C7000A06830B10023CDE900331A46022102F0CA
:104C800031FAA06840B100236FF00042CDE9002363
:104C900019461A4602F026FA02B010BD6CE603204F
:104CA00090E603208C8F0B00F0E5032008B500236D
:104CB0004377006803F060FCBDE8084002F064B987
:104CC0002DE9F0438F188FB0B942CDE9051706469C
:104CD0008946904680F0C28005A80D88FFF758FFEE
:104CE0000368BB4280F0BA8005980378412B49D114
:104CF000013003F0E1FF052837DDFF2447F276237A
:104D00009D4200F0D38041D847F261239D4200F0DC
:104D1000A88047F264239D426BD046F670539D42B3
:104D200041D1784D784EDFF8F4810598B84280F093
:104D300095800378412B4BD1013003F0BDFF05284E
:104D400039DDFF2405A8FFF723FFDDF8149029467D
:104D50004846FFF719FE014600283DD1204603F0E2
:104D600097FD05A8FFF714FFDFE70598013003F072
:104D7000A3FF0028C1DB0598013003F09DFF0E3032
:104D8000C4B2BBE705A8FFF7F9FEF9E747F2647381
:104D90009D424FD047F276739D4200F0978047F2D4
:104DA00061739D426FD00023CDE90133022200924E
:104DB000728B19463AE00598013003F07DFF002818
:104DC000BFDB0598013003F077FF0E30C4B2B9E7BE
:104DD00005A8FFF7D3FEF9E731464846FFF7D4FDB3
:104DE00028B141464846FFF7CFFD0028B9D101213F
:104DF000B4E70AAB4549079307A810230025CDE97E
:104E00000853FFF7D4FE07A82146FFF7EDFE204622
:104E100003F068FD014607A8FFF7F8FE089BCDE9FF
:104E20000155013B0093079B2A461421304600F0B0
:104E300085FA13E005A8FFF7ABFE03689F420DD982
:104E4000A4B20121204603F023FD05A8FFF796FE3A
:104E5000011E18BF0121204603F02BFD0FB0BDE855
:104E6000F0830AAB079307A8102329490025CDE951
:104E70000853FFF79CFE07A82146FFF7B5FE204622
:104E800003F043FDC6E705A8FFF782FE03689F42D3
:104E9000E4D9A4B20121204603F0FAFC05A8FFF7EB
:104EA0006DFE0146204603F047FDD7E720468DF80A
:104EB000284002F06BF803460AA823B1154A934232
:104EC00001D09847CAE702F05DF8C7E705A8FFF7E9
:104ED0005FFE059B8DF81C40A3EB0901A8EB0101C7
:104EE0002046CDE90A310C9102F05AF803460AA98E
:104EF00007A823B1084A934201D09847AEE702F0D1
:104F000042F8ABE7978F0B009A8F0B00A28F0B0034
:104F1000A58F0B00856F0B00876F0B009E8F0B001A
:104F20002DE9F0418CB004AF044605220068391D1C
:104F300002F0DFFDA8B3052804D000202037BD46CD
:104F4000BDE8F081B7F8050002F004F9A7F8050004
:104F5000B7F8070002F0FEF8B7F80530A7F8070029
:104F60008046002BE9D03B7923BB02F009F80246CA
:104F7000E060607FB7F80730C0B9B7F805100129C5
:104F800014D1092B0FD0C82B01D0042BD6D1012569
:104F900062612046657700F081FAFFF7A5FD01F018
:104FA000F3FF0120CAE703236377C7E7581F18BF41
:104FB0000120C3E7B0F5806F03D92046FFF776FEE6
:104FC000EFE700F1080323F007036E46ADEB030D96
:104FD00004AD02462946206802F08BFD80454FF063
:104FE00000007FD1B7F80730E85401F0C9FF3B79E2
:104FF000E060142B00F0A68048D80F2B00F0A280B0
:1050000007D8022B48D0062B51D02046FFF74EFE82
:1050100058E0112BF9D100233B70B7F807302B442F
:105020009D42C7E903534DD207F10C00D5F800802B
:10503000FFF7AEFDFB68B7F807105D1B4D1BC7E916
:1050400005357B68FD61C3F30F236383644B98458B
:1050500000F0BF8000F28C80A3F57F236FF4007214
:105060001344984500F09D8079D8A3F50033063BA2
:10507000984500F09C8003F50033033398456BD1CD
:1050800007F11401384601F07EFF65E0292B1BD0A3
:10509000372B17D01D2BB8D1637F43B9012363771A
:1050A000204600F0FBF9FFF71FFD01F06DFF002324
:1050B000C821B7F805200091CDE9013319462046F3
:1050C00000F03CF901200DE0A3681BB9402002F07C
:1050D00045FAA060B7F80780A8444545C7E90558D8
:1050E00002D30020B54629E729464022A06803F0F4
:1050F0002FFEA368002583F83F5007F11400FFF747
:1051000047FD036898451BD9786920B1BB6998426F
:1051100014D203F0D5FD85B2206803F02DFA236880
:10512000A2685A631D870023637701F029FFA0F569
:105130009C500838C4E903006061C3E72846EAE7E9
:105140005025E9E77B68B7F80720C3F30F23638393
:1051500029462046FFF7B4FD00236383B2E7214BC5
:105160009845F9D107F11401384601F00CFFF3E737
:105170001D4B984521D003F19F6303F5003303F5E0
:10518000807398451FD003F16E4303F5302303F578
:1051900086739845E0D107F11401384601F0F3FE1B
:1051A000DAE707F11401384601F0EDFED4E707F124
:1051B0001401384601F0E7FECEE707F11401384646
:1051C00001F0E1FEC8E707F11401384601F0DBFE0B
:1051D000C2E707F11401384601F0D5FEBCE700BF75
:1051E000766673006462670061636F6E2DE9F0415B
:1051F00004468CB00D46FFF777FC637F022B1ED070
:10520000237F628B0133DBB22377AAB9022B13D839
:10521000206803F079F8A8B125B9206803F052F9A5
:1052200000280FDD2046FFF77BFE0028F5D120681F
:1052300003F0A2F901F0A8FE237F013B23770CB015
:10524000BDE8F08101F09CFE0546206803F05CF8A3
:10525000677F012F064624D120B965612046FFF7FC
:1052600025FDE9E7E3684FF21862EB1A9342F5D89F
:105270004AF6C872934203D82369EB1A9342DBD9EA
:10528000636941F27072EB1A9342D5D90023CDE9DC
:10529000013300931A460621204600F04FF865615D
:1052A000CAE7002FC8D16369EB1A40B141F27072AE
:1052B0009342C1D9206803F05FF96777BCE741F2F8
:1052C00088329342B8D9206803F056F9D4F800C068
:1052D000DCF834E0BCF83880BEF1000F1BD0334658
:1052E00042467146604602F091FF0128D7D16368BB
:1052F0000593012518462583FFF750FB0022CDE9D1
:105300000122059B00902A461D21204600F016F838
:105310002369636190E7084B06930CF120070FCFD8
:1053200007AE0FC63B6833704246734606A9604617
:1053300003F04CF8D9E700BF6CA00B002DE9F04F4B
:1053400083B000AF044600683D6B88461646994618
:10535000EB4602F0D9FF002800F08180B8F11D0F64
:1053600004D84D4B23FA08F3DB0702D4637F012BEB
:1053700075D146B9668B36B9238B01339BB2002BAE
:1053800072D02383268BA8F10C03082B16D8D4E9FE
:105390000323934238BF134603F1420A01F0F0FDA4
:1053A000AAEB0000002861DB00212046FFF71EFF6A
:1053B00001F0E6FDAAEB00000028F5DAB9F1000FD4
:1053C0005BD06B1D7A6B002ABA6B08BF002203EB1F
:1053D000020A0AF1070323F00703ADEB030D304681
:1053E0008DF80080C7F804D001F0BCFEBB6BADF8AF
:1053F0000100E81880B201F0B5FEADF80300B9F184
:10540000000F3CD0002D3AD02A4649460DF1050048
:1054100003F05AFC681D7B6B3BB1BB6B2BB11A468A
:105420007B68796B184403F04FFC002555452AD260
:10543000AAEB05027B682068B2F5806F28BF4FF4A5
:105440008062591902F037FE0646002001F096FDF1
:10545000BEB9206803F090F8667701F095FD0C372F
:10546000DD46BD46BDE8F08F01238AE7217F002994
:10547000A4D12046FFF7BAFEA0E70523A2E7052046
:10548000C9E73544D2E703D02046FFF70FFCE6E733
:1054900001F076FD2061E2E74500002030B599B0CB
:1054A00008AB044605930025402305A80B49CDE928
:1054B0000653FFF77CFB05A80949FFF778FB069B1D
:1054C0000293059B0193652300932A46054B112106
:1054D0002046FFF733FF19B030BD00BFA88F0B0087
:1054E000AD8F0B004C900B0070B52DED028BB0EE24
:1054F000408AF0EE608AADF5846D08AB0024054665
:105500000E46059305A84FF480631349CDE9064381
:10551000FFF74DFB314605A8FFF766FBDDE90631D5
:1055200005980E4AC91A8DED008B184402F026F832
:10553000431C069803440693013B0093CDE90144C4
:10554000059B224614212846FFF7F8FE0DF5846DD1
:10555000BDEC028B70BD00BFBB8F0B00BE8F0B007C
:1055600070B5ADF5846D164608AB0024054605936D
:1055700005A84FF48063CDE90643FFF718FB3168B7
:1055800005A8FFF731FB069B013B0093CDE90144E1
:10559000059B224640212846FFF7D0FE0DF5846D7D
:1055A00070BD0000000000002DE9F8437E487F4DEB
:1055B0007F4C00F092FE7F480021FFF717FE7E4BE4
:1055C0001B78002B7ED178487C4F00F09FFE08B1FD
:1055D00001233B700E2003F098F9794B794E186047
:1055E000FEF770FE6CA3D3E90023FEF7D5FE6CA393
:1055F000D3E90023FEF7FAFF734B80468946C3E9DF
:1056000000890022714BDFF80882FEF70DFD704B18
:105610000022FEF7C1FE02460B46C6E900236D4B91
:105620000022FEF7B9FE6C4B0022FEF7DFFF0022DE
:105630006A4BFEF7FBFC41EC100BC8E900015D482A
:105640000021FFF751FF96ED000B5A480121FFF7AB
:105650004BFF082003F046F9614A002854D001238B
:1056600013703B78002B5CD05E4E1320376803F03C
:105670004CF945F82700FFF7DBFA5B494A4802F08E
:10568000EBF8316848480A220131FFF70EFA464824
:1056900002F0E9F85549444802F0F1F80A22296875
:1056A0004148FFF702FA52493F4802F0D5F86968CD
:1056B0003D480A22FFF7F9F93B4802F0D4F83A488E
:1056C00001F0C2FB4B484C4E00F0BDFE00213060A3
:1056D000052003F0EEF80021062003F0EAF800218F
:1056E000072003F0E6F8D5E9003132688B4218460E
:1056F000A8BF084682423EDA0121052003F0D9F80E
:1057000001232360BDE8F8831378002BA9D0354925
:105710000B680133022B0B6004BF38700860002354
:105720009EE7FFF785FA35491F4802F0A8F896ED85
:10573000000B02211C48324E02F092F931491A48FE
:1057400002F08AF898ED000B0221174802F088F960
:105750002D49154802F080F8134801F075FB2268C6
:1057600033689A4204D0124A28491248FFF7F8FEDB
:1057700023683360A6E78B42B8BF0B469A424FF0CE
:10578000010104DA062003F094F80223B9E70720A8
:1057900003F08FF80323B4E76666666666660A4020
:1057A0000000000000FEAF40F0E5032064E60320A7
:1057B000ECE5032088E503206CE6032018E50320D0
:1057C00078E6032080E60320B0E603200000E03FF7
:1057D00000005940000022400000144000004040FA
:1057E000E8E5032060E60320C48F0B00D28F0B0096
:1057F000E18F0B0074E60320E4E50320E48F0B0047
:1058000070E60320F08F0B00F58F0B00F78F0B0075
:1058100088E60320F8B502F03BFB4FF4165102F086
:105820002BFB03F00BF902F0F9FB03F007F901463B
:1058300029482A4C00F0FCFE274800F082FE26484A
:1058400000F0C6FE0121052003F022F80121062008
:1058500003F01EF80121072003F01AF800210820A8
:1058600003F016F80021132003F012F800210E2097
:1058700003F00EF81A4800F007FD40F6B83001F0CA
:105880007DFB184B636001F07BFBA0F59C50236807
:10589000154A5A630838C4E90300502260611A8728
:1058A000002644F24F67206802F066FE667701F03A
:1058B00067FB0546637F012B0CD001F061FB401BA9
:1058C000B84204D800212046FFF790FCF2E7637F3E
:1058D000012BE8D1F8BD00BF74E6032088E5032062
:1058E000F0E5032003900B0024900B0070B5264DCB
:1058F00088B0284602F08AFE05F11C0002F016FA74
:10590000224B0024C3E90054C3E90244C3E9044420
:105910009C619C8321466C632C87012001F092FDE1
:105920001B4800F056FD07211A4800F07FFC1A4B77
:10593000049304AD194B1A4A1A6095E8030003F169
:105940000C0202AE86E8030092E8030085E803003B
:1059500096E8030082E80300124A5A619A690792A6
:10596000114A9A611C719C60104A069442F21071AF
:1059700003F10800CDE9004401F09CFB2846FFF745
:10598000BFF808B070BD00BFA8E5032088E503207C
:1059900074E60320F0E50320594A0B0090E603204B
:1059A00038900B00D14A0B00E54A0B00714A0B00FE
:1059B000704710B510210446FFF737F8204610BD98
:1059C0000EB403B503AB002153F8042B019302F08E
:1059D0004AF802B05DF804EB03B0704773B50446B3
:1059E00008462279A36832B1A3B90B4902B0BDE8D9
:1059F000704001F031BF094A267B094D0949647B9B
:105A0000012E18BF2946CDE900140749FFF7D8FF3A
:105A100002B070BD054AEFE7C4900B00E38F0B00A6
:105A2000C0900B00BC900B00DA900B00B3900B0001
:105A30002DE9F04F85B01F46BDF93880BDF83C30E8
:105A4000A8EB0209A7EB010AB9F1000FB8BFC9F131
:105A50000009BAF1000FB8BFCAF1000AD145834668
:105A60000C46154604DD3A462C4647460D46904600
:105A7000BC4205DD2A464546904622463C4617462E
:105A80003E1BB2B20092A8EB050282EAE271A1EBE2
:105A9000E271C6F3C03202FA86F64545B4BF012270
:105AA0004FF0FF32019176100292BC421CDCDBF811
:105AB00000200393D145D2F81880C7BF294622465B
:105AC0002A4621465846C047019A039BB61AB1B2EE
:105AD00036B2002E05DA029A1544009A56182DB2F5
:105AE00036B2013424B2E0E705B0BDE8F08F70476C
:105AF00010B404682469A4465DF8044B604730B4D0
:105B00000468BDF808500295A46BA44630BC6047F9
:105B100030B40468BDF808500295E46BA44630BC6C
:105B2000604770B4BDF90C50BDF810600468CDE951
:105B30000356246CA44670BC60472DE9F3411C4613
:105B40000368BDF820805B6905461646013C344475
:105B50000F4624B298472B68CDF8048000949C6AC5
:105B600028463B4632463946A0472B68DB6A284622
:105B700002B0BDE8F04118472DE9F3411D46036826
:105B8000BDF820805B69044617460E469847CDE96C
:105B9000007822686B1E3344956A20461BB23A4651
:105BA0003146A8472368DB6A204602B0BDE8F041D1
:105BB00018472DE9F3471E460368BDF928905B6935
:105BC000BDF82C800C460546174698472644B4423B
:105BD0002B680BDACDF80080D3F820A021464B4685
:105BE0003A4628460134D04724B2F0E7DB6A28461B
:105BF00002B0BDE8F047184713B502680191B0F94B
:105C00000E100091146CB0F90C3000221146A04720
:105C100002B010BD2DE9F74399421646BDF9287030
:105C2000BDF82C90026880460D461C4613D1BE423A
:105C3000C8BF3346CDF82890C4BF3E461F467B1CE4
:105C4000946B9B1B1BB2324629464046A44603B0C8
:105C5000BDE8F0436047BE420AD19942C2BF0B463D
:105C600025461C46631CCDF82890D46B5B1BE9E7E6
:105C700053699847CDE90079D8F8003040469F6ACB
:105C8000324623462946B847D8F80030DB6A4046FA
:105C900003B0BDE8F04318472DE9F3471D460368FC
:105CA000BDF82C805B69BDF9289004460F46164666
:105CB00098472368CDF80080D3F824A032462B46BD
:105CC00039462046D0472368CDF8008009F1FF32DD
:105CD0003244D3F824A039462B46204612B2D0478E
:105CE0002368CDF80080D3F820A032464B463946D1
:105CF0002046D0476B1ED9192368CDF800801D6A55
:105D000020464B46324609B2A8472368DB6A204644
:105D100002B0BDE8F0471847704701F00303B0F93F
:105D20000A208376C907B0F9083059BF8381C28140
:105D30008281C3817047000030B54281C281074A29
:105D4000074D0181002481814FF0FF31C0E9051228
:105D50004460056004610477046230BD0101000104
:105D600000960B002DE9F04F89B0CDE902120268D0
:105D7000BDF948800493BDF94C3052690593BDF8D4
:105D800050A00446904718F107024FF0000648BFA4
:105D900008F10E024FEAE20B01963546039B019A89
:105DA000BDF904109A18059B8B4212B227DD049BA3
:105DB00033444FF0000906930FFA89F080451FFA2B
:105DC00089F117DD4F0705BF069BC0106D001D5CF4
:105DD00018BFEDB22B060AD5029B20680792194422
:105DE000836909B21F4620465346B847079A09F10E
:105DF0000109E1E7019B013301935E44CEE723688B
:105E0000DB6A204609B0BDE8F04F18472DE9F04F96
:105E10002DED028B91B01646026ABDF874809DF894
:105E200078509DF87C4003911F46BDF87030049374
:105E30008346002A40F0C580B0F90C308B4240F315
:105E40004C81B0F90E30B34240F34781062313FB77
:105E50000513002B40F3418106EBC403002B40F3F4
:105E60003C81037F1BB9AF2F84BF0137FFB2DBF842
:105E7000003058465B699847052209920022059236
:105E8000984A07EB8703D3180C93B3B20693059A8D
:105E90000C9B9B5C0793ABB20B93BDF80C30089343
:105EA000039B02FB05F919FA83F90FFA89F308EE4F
:105EB000103A08230A93039B02EB030A4FF00009F0
:105EC0000FFA8AFA079ADBF80030D20752D5012D73
:105ED0001FFA89F23ED1012C3CD19B6906991F46DD
:105EE000049B0A4412B251465846B84709F10103CF
:105EF0004FFA83F9079B5B0807930A9B013B13F05A
:105F0000FF030A93DED1059F01377BB20593099BFE
:105F1000013B13F0FF030993B9D1049B43450FD014
:105F2000012DDBF800303BD1012C39D10899CDF897
:105F3000008005311C6A3246082309B25846A04742
:105F4000DBF80030DB6A584611B0BDEC028BBDE8CF
:105F5000F04F1847069914FB02F20A440499019184
:105F60000094DB6918EE101A1F4612B22B465846F1
:105F7000B847BBE7049A4245B8D0012D1FFA89F211
:105F800007D1012C05D19B6906991F460A44434657
:105F9000A8E70699CDF8048014FB02F20A44DFE773
:105FA0000B9ACDF8048002EB8201089AE4000A44BF
:105FB00011460094DC6932462B4609B25846A04788
:105FC000BEE7137A516812680B92FF1AFFB201EB19
:105FD000C70331F8372006929A780992DA780C9242
:105FE000012D93F9052093F906A00A9201D8012CFE
:105FF00057D9BDF9283008930FFA8AF30793DBF8D5
:10600000003058465B699847B3B24FF000080E93D2
:106010001AFA86F3C14647460F930C9B9F428FD2D4
:10602000079B0E9A3B4403FB0423002205920F9A20
:106030001BB202EB070A08EE103A0FFA8AFA43463F
:10604000099A0599914241D25A1CD2B25B070D922E
:1060500007D1069B06990B9A01339BB212F8019067
:10606000069319F0800F12D0012DDBF80030BDF837
:106070000C101AD1012C18D10A9A9B691144059A67
:1060800011441E465246049B09B25846B047059E2D
:106090000136F3B24FEA490905935FFA89F90D9B7E
:1060A000CEE70023CDE90733A9E70598089A024413
:1060B00002FB0511049ACDE90042DB6918EE102AB3
:1060C0001E4609B22B465846B047E0E7099B013708
:1060D00098445FFA88F8FFB29FE711B0BDEC028BDD
:1060E000BDE8F08FF7900B00F0B5026A85B004466A
:1060F0000B46002A34D10A2908D1438A0282427E03
:1061000003EBC2036382012005B0F0BD0D29FAD074
:10611000E17E007E657E71B1B4F91060062111FB4D
:106120000061B4F90C60B142C1BFB4F9121022820F
:1061300001EBC5026282E28A0192A28A0092CDE955
:106140000205B4F91220B4F910102046FFF75EFEE4
:10615000237E228A03EB430302EB43032382D2E72D
:106160000A2907D100230382417E927A438A01FBE8
:106170000233C7E70D29C6D0157AA942C3D3517A95
:106180009942C0D351685D1BEDB201EBC505A878FB
:1061900028B3E97819B3E17E267E677E91B195F93F
:1061A00005100844B4F9101006FB0011B4F90C00F6
:1061B000814207DD00202082B4F91210927A02FB9E
:1061C00007126282E28A0192A28A0092CDE90267F6
:1061D000B4F91220B4F910102046FFF717FE297900
:1061E000227E238A01FB0233B8E7012938BF01214F
:1061F000017641767047000010B5064B03600446F7
:10620000006D08B100F07EFF204600F03DFA204608
:1062100010BD00BF58960B0010B50446FFF7ECFF09
:1062200020467021FEF701FC204610BD30B585B038
:1062300004460D4602F002FC104A1149CDE9012145
:106240004FF0FF328021034600922046202200F0CA
:1062500093FA0C4B23600023C4E9143504F1580071
:1062600000F05EF804F1600000F05AF804F16800F4
:1062700000F056F8204605B030BD00BF801A060079
:10628000A086010058960B0013B50446503000F06C
:1062900031FF636DD90705D50222042104F15800AE
:1062A00000F052F8636D9A0705D50022032104F12E
:1062B000600000F049F8636D5B0705D502221146C6
:1062C00004F1680000F040F8012300933C22022111
:1062D000204600F059FB02B010BD10B5436DD90740
:1062E000044602D5583000F03CF8636D9A0703D598
:1062F00004F1600000F035F8636D5B0705D504F12B
:106300006800BDE8104000F02CB810BD436D024697
:1063100013F0010003D002F1580000F052B87047AA
:1063200000210A22C0E900127047002310B504467C
:10633000C171837188B202F0D5FA08B10323A37149
:1063400000F0A0FE206010BD38B50C460546114691
:10635000A0B202F09DFA21462846BDE83840FFF77A
:10636000E4BF38B50446C07902F0BCFAA57900381C
:1063700025F0080318BF0120C5F340058542A3712D
:106380000AD000F07FFEA379206083F00203A3719E
:10639000A079C0F3C00038BD00F074FE2368C01AB5
:1063A000A3889842F4D3A37903F00103AB42EFD062
:1063B00000F068FEA379206083F0010343F0080336
:1063C000E5E7807900F00900A0F108035842584140
:1063D0007047704710B504466021006801F050FE18
:1063E000206801F058FEB0FA80F0400910BD38B5C1
:1063F00005460C460068602101F042FE28680368EB
:1064000021469B6898472868002101F040FE08B1AA
:10641000002038BD28680222602101F02EFE286885
:1064200003681B6998470028F2D0286803685B69F5
:1064300098470446286803685B699847E4B244EAD1
:10644000002080B2E5E70921FFF7D1BF0C21FFF75B
:10645000CEBF70B504460E4600686021154601F0B7
:106460000FFE2068036831469B68984720680368E0
:10647000E9B29B68984720680368290A9B68984797
:10648000206801F008FEB0FA80F0400970BD70B5D8
:1064900004460D461646FFF7AAFF00F47F4040EA87
:1064A000060229462046BDE87040FFF7D2BF70B50E
:1064B00004460D461646FFF79AFFC0B240EA062290
:1064C00029462046BDE87040FFF7C3BF08B5FFF777
:1064D0008EFFC0F3072008BD2DE9F04104469DF86A
:1064E00018700D46984616466AB1FFF780FFC0B295
:1064F00000EA080343EA07022946204636B1BDE810
:10650000F041FFF7C4BFFFF7E1FFF1E7BDE8F0415D
:10651000FFF7CDBFB1F5A07F07B50ED29F290ED8EA
:106520004F298CBF40230023009301223F230321E6
:10653000FFF7D2FF03B05DF804FBC023F4E780232C
:10654000F2E707B500210091FE230122FFF7C4FF07
:1065500003B05DF804FB072907B50FD803290FD84E
:1065600010D002290CBF0423002300930122F12341
:106570000321FFF7B1FF03B05DF804FB0E23F4E73E
:106580000C23F2E70823F0E707B50023009301226C
:10659000FE230321FFF7A0FF03B05DF804FB07B55E
:1065A0000F298CBF0823002300930022F723032127
:1065B000FFF792FF03B05DF804FB07B502230093D9
:1065C0000122EF230421FFF787FF03B05DF804FBEE
:1065D00007B5002200927F230421FFF77DFF03B05F
:1065E0005DF804FBC72907B516D8B32916D89F292B
:1065F00016D88B2916D8772916D8632916D84A2990
:1066000094BF002101210091F82300220421FFF70B
:1066100063FF03B05DF804FB0721F4E70621F2E70E
:106620000521F0E70421EEE70321ECE70221EAE788
:1066300038B504460846216001F0F0FC2046FFF71B
:10664000C9FE054610B90025284638BD2046FFF78B
:10665000FDFEB0F5C37FF6D12046C821FFF7C2FF8B
:1066600020462821FFF756FF20460821FFF773FF39
:1066700010212046FFF793FF2046FFF79EFF20469C
:10668000FFF782FFE0E7000010B5044B036004460B
:10669000C06A08B100F06AFF204610BD649B0B0081
:1066A00010B50446FFF7F0FF20465021FEF7BDF974
:1066B000204610BD002910B54BDBB0F90C408C42D0
:1066C00047DD002A45DBB0F90E40944241DD847E6F
:1066D000022C1FD0032C26D0012C04D10489D243D4
:1066E00014440A4621B2012B23D0022B32D083BBA3
:1066F000002A13460489C06AB8BFD31DDB1013FB00
:10670000041102F0070201239340425C22EA0302D3
:1067100042541EE00489013C611A4489D243224458
:1067200009B212B2DFE74489013C641A114622B271
:10673000D9E7002A04891346B8BFD31DDB1013FB29
:106740000411C36A02F0070001228240585C024330
:106750005A5410BD002A13460489C06AB8BFD31D1D
:10676000DB1013FB041102F00702012303FA02F20B
:10677000435C5A40CCE7000070B504461D46002635
:10678000FFF7DAFA114B2360666215B902F056F989
:106790000546FF2384F8333084F836309DF91030F5
:1067A00084F837300A4BA363012384F83C30059BFF
:1067B000A3644FF6FF72069BA286C4E90A562664BC
:1067C000A4F84460E364204670BD00BF649B0B00E6
:1067D000B0960B00F8B50446806A0D4690B194F966
:1067E000301001F051FCA06A036800219B689847B3
:1067F000A06A036829469B689847A06ABDE8F840EC
:1068000001F049BC94F93530014698B202F051F8D4
:10681000606A20B12946BDE8F84000F0C1BF0826F3
:10682000802794F9330005EA070180B202F041F8AD
:1068300094F93400012180B202F03BF894F934005D
:10684000002180B202F035F8013E4FEA5707E8D147
:10685000F8BD38B50446806A0D4680B1A16C01F0E0
:10686000D9FB002D204614BFA721A621FFF7B2FFB8
:10687000A06A88B1E16CBDE8384001F0CBBB606A2A
:1068800018B104F1380100F01DFF94F93600002121
:1068900080B202F00EF8E4E794F93600012180B2EC
:1068A00002F007F8606A18B1BDE8384000F0F0BEA9
:1068B00038BD2DE9F8430446806A0D468F1840B371
:1068C00094F9301001F0E0FBA06A036800219B6896
:1068D00098470126AF42A06A17D01F2E0CD901F0AD
:1068E000DAFB94F93010A06A01F0CEFBA06A0368CD
:1068F00000219B6898470126A06A15F8011B0368D0
:1069000001369B689847F6B2E4E7BDE8F84301F02A
:10691000C2BB94F93530014698B201F0CAFFBD42BE
:1069200022D0606A15F8019B18B1494600F038FF83
:10693000F5E708264FF0800894F9330009EA0801CA
:1069400080B201F0B6FF94F93400012180B201F069
:10695000B0FF94F93400002180B201F0AAFF013E9B
:106960004FEA5808E8D1DAE7BDE8F883B0F90A3011
:10697000DA1D48BF03F10E02B0F90830C06AD21028
:106980005A43002102F0AEB92DE9FF411E46C36A09
:106990009DF8288004460F461546C3B12046FFF7F0
:1069A000E5FFB4F90A00B4F90810202821DC2023FF
:1069B00001222038CDE9013200EBD0707323733906
:1069C000009301EBD171894B40F34F0221E0B0F904
:1069D0000A30D81D48BF03F10E00B4F90830C010CA
:1069E000584300F0BBFDE0620028D7D104B0BDE8F9
:1069F000F0814038C0F3C03202FA80F24023012017
:106A0000CDE90130522352390093794B01EBD1711A
:106A10005210204641F34F01FFF7A4F9A06A84F811
:106A20003170002878D0002D74D1B4F90A30202BB1
:106A30000CBF3C253D2584F83050B8F1000F01D043
:106A400001F0ECFAFEB194F9370000281BDB0121BC
:106A500080B201F01DFF94F93700012180B201F0EE
:106A600028FF012001F06CF894F93700002180B272
:106A700001F01FFF0A2001F063F894F937000121AB
:106A800080B201F016FFA06A002874D0A16C01F05A
:106A9000C1FA042257492046FFF70BFF61890139EB
:106AA000C9B22046FFF796FE534904222046FFF75D
:106AB00000FF94F93130012B0CBF10211421204626
:106AC000FFF788FE04224D492046FFF7F2FEA36837
:106AD0004B4A93425CD14B4904222046FFF7E9FE22
:106AE000D9212046FFF776FE94F93130012B0CBFF7
:106AF0002221F1212046FFF76DFE20464249062261
:106B0000FFF7D7FEA06A002863D0E16C01F082FA9B
:106B100001206BE76DB28EE794F93500012180B258
:106B200001F0B6FE94F93600012180B201F0B0FE0A
:106B300094F93600012180B201F0BBFE656A3DB1D7
:106B4000B8F1000F3FF47EAF284600F08DFD79E7E5
:106B500094F93300012180B201F09AFE94F93400D7
:106B6000012180B201F094FE94F93400294680B2EC
:106B700001F09FFE66E7606A18B104F1380100F089
:106B8000A1FD94F93600002180B201F092FE80E769
:106B90001E4A93420ED11E4903222046FFF789FE6A
:106BA00094F93130012B0CBF9F21CF212046FFF7F4
:106BB00011FE95E7174A934292D1174903222046C6
:106BC000FFF777FE94F93130012B0CBF1021AF2174
:106BD000ECE794F93600012180B201F06AFE606AA8
:106BE000002895D000F054FD92E700BF7C990B007F
:106BF000BC960B00C49B0B00C89B0B00CC9B0B00EE
:106C000080002000D69B0B00D09B0B008000400032
:106C1000DA9B0B0060001000DD9B0B0070B5002AB2
:106C2000BDF810503DDBB0F90A40944239DD00292F
:106C3000BEBF5B181BB20021B0F90840CE18A642B7
:106C4000C4BF631A1BB2002B2BDDC06AD61014FB25
:106C50000611014402F0070001228240012DD2B248
:106C600016D0022D0BD0E5B9D243D2B20B449942D3
:106C700017D011F8010B104001F8010CF7E70B4495
:106C800099420ED011F8010B504001F8010CF7E7C2
:106C90000B44994205D011F8010B104301F8010C87
:106CA000F7E770BDF0B50029BDF8145076DBB0F9F8
:106CB0000860B14272DA002ABEBF9B181BB20022E4
:106CC000B0F90A40D718A742C4BFA31A1BB2002BC1
:106CD00064DDC2F3C404C76A16FB041612F007028F
:106CE000DBB207EB060423D0C2F10802D2B22D4971
:106CF00093423CBF4FF0FF0CA2EB030E895C3CBFFC
:106D00004CFA0EFC0CEA0101012D07D0022D2ED009
:106D10004DB917F806C02CEA010103E017F806C0C8
:106D200041EA0C01B955934238D3B0F908100C442C
:106D30009A1AD2B2072A0ED9022D1DD113462178F4
:106D4000C9432170083BB0F90810DBB2072B0C4493
:106D5000F5D802F007020AB3134B012D9B5C1AD041
:106D6000022D1CD0D5B9227822EA030315E017F8CA
:106D700006C081EA0C01D5E7291E18BF012149424E
:106D8000C9B213462170083BB0F90860DBB2072B8B
:106D90003444F7D8DDE7227813432370F0BD22781E
:106DA0005340FAE7B49B0B00BC9B0B0070B4144635
:106DB000827EBDF80C60022A0DD0032A18D0012A69
:106DC00011D10289E443144424B203960A462146B1
:106DD00070BCFFF767BF42890589E4431944144436
:106DE000691A24B209B20396224670BCFFF716BF97
:106DF00045891944691A09B2E7E730B41446827E1E
:106E0000BDF80850022A0DD0032A18D0012A11D14A
:106E1000E2180489A41A24B202950A46214630BC1D
:106E2000FFF7FCBE0289C9431144E2184489A41A41
:106E300009B224B20295224630BCFFF733BF428923
:106E4000C943114409B2E7E72DE9F8430446806AD3
:106E5000002842D0A16C01F0DDF847490522204608
:106E6000FFF727FD218901392046C9B2FFF7B2FC9F
:106E7000B4F90A30DE1D48BF03F10E06D4E90A0555
:106E80002389F61013FB06F615FA86F600283AD089
:106E900094F9301001F0F8F8A06A036840219B686B
:106EA00098470127B542A06A24D01F2F0CD901F0C2
:106EB000F2F894F93010A06A01F0E6F8A06A0368CD
:106EC00040219B6898470127A06A15F8011B0368B9
:106ED00001379B689847FFB2E4E7606A18B104F194
:106EE000380100F0EFFB94F93600002180B201F088
:106EF000E0FCB2E701F0CFF8A06A78B3E16CBDE83E
:106F0000F84301F087B894F93500012180B201F00F
:106F1000D0FCAE42F0D0606A15F8019B18B149462A
:106F200000F03EFCF5E708274FF0800894F93300A5
:106F300009EA080180B201F0BCFC94F93400012197
:106F400080B201F0B6FC94F93400002180B201F067
:106F5000B0FC013F4FEA5808E8D1DAE794F936006F
:106F6000012180B201F0A5FC606A18B1BDE8F843C8
:106F700000F08EBBBDE8F883E09B0B0000F0E0BDA5
:106F800000F080B8704770477047000003065ABF92
:106F9000024B53F820000020704700BFE89B0B0015
:106FA00003065ABF024B53F820000020704700BF71
:106FB000E89D0B0008B5024B1B689B68019308BD58
:106FC0006802030008B5024B1B68DB68019308BD2B
:106FD0006802030008B5024B1B685B68019308BD9B
:106FE0002C02030008B5024B1B689B68019308BD87
:106FF0002C02030008B5024B1B68DB68019308BD37
:107000002C02030008B5024B1B681B69019308BDE5
:107010002C02030008B5024B1B685B69019308BD95
:107020002C02030008B5024B1B689B6A019308BD44
:107030002C02030008B5024B1B681B6B019308BDB3
:107040002C02030008B5024B1B689B6F019308BD1F
:107050002C02030008B5024B1B685B69019308BD55
:107060006C02030008B5024B1B685B68019308BD06
:107070001802030008B5024B1B68DB68019308BDCA
:107080001802030008B5024B1B685B69019308BD39
:107090001802030008B5024B1B68DB68019308BDAA
:1070A0004802030008B5024B1B68DB69019308BD69
:1070B0004802030008B5024B1B681B6A019308BD18
:1070C0004802030008B5024B1B685B6A019308BDC8
:1070D0004802030008B5024B1B689B6A019308BD78
:1070E0004802030008B5024B1B68DB6A019308BD28
:1070F0004802030008B5024B1B681B6B019308BDD7
:107100004802030008B5024B1B685B6B019308BD86
:107110004802030008B5024B1B685B6C019308BD75
:107120004802030008B5024B1B681B6F019308BDA2
:107130004802030008B5024B1B685B69019308BD58
:107140006402030008B5024B1B681B6A019308BD6B
:107150006402030008B5024B1B685B6A019308BD1B
:107160006402030008B5024B1B689B6A019308BDCB
:107170006402030008B5024B1B68DB68019308BD7D
:107180003C02030008B5024B1B681B69019308BD54
:107190003C02030008B5024B1B685B69019308BD04
:1071A0003C02030008B5024B1B689B69019308BDB4
:1071B0003C02030008B5024B1B68DB69019308BD64
:1071C0003C02030008B5024B1B681B6A019308BD13
:1071D0003C02030008B5024B1B689B6A019308BD83
:1071E0003C02030008B5024B1B681B6C019308BDF1
:1071F0003C02030008B5024B1B681B68019308BDE5
:107200002802030008B5024B1B68DB68019308BD28
:107210002802030008B5024B1B689B69019308BD57
:107220002802030008B5024B1B68DB69019308BD07
:107230002802030008B5024B1B681B6A019308BDB6
:107240002802030008B5024B1B685B6A019308BD66
:107250002802030008B5024B1B689B6A019308BD16
:107260002802030008B5024B1B68DB6A019308BDC6
:107270002802030008B5024B1B681B6B019308BD75
:107280002802030008B5024B1B685B6B019308BD25
:107290002802030008B5024B1B681B6C019308BD54
:1072A0002802030008B5024B1B681B6D019308BD43
:1072B0002802030008B5024B1B689B69019308BDB7
:1072C0003802030008B5024B1B68DB69019308BD57
:1072D0003802030008B5024B1B681B6A019308BD06
:1072E0003802030008B5024B1B689B6A019308BD76
:1072F0003802030008B5024B1B681B6B019308BDE5
:107300003802030008B5024B1B689B6B019308BD54
:107310003802030008B5024B1B681B68019308BDC7
:107320003002030008B5024B1B685B69019308BD7E
:107330003002030008B5024B1B68DB69019308BDEE
:107340003002030008B5024B1B681B6A019308BD9D
:107350003002030008B5024B1B685B6A019308BD4D
:107360003002030008B5024B1B68DB6B019308BDBC
:107370003002030008B5024B1B681B6C019308BD6B
:107380003002030008B5024B1B685B6C019308BD1B
:107390003002030008B5024B1B681B68019308BD4F
:1073A0004C02030008B5024B1B685B68019308BDE3
:1073B0004C02030008B5024B1B681B69019308BD12
:1073C0004C02030008B5024B1B685B69019308BDC2
:1073D0004C02030008B5024B1B689B69019308BD72
:1073E0004C02030008B5024B1B68DB69019308BD22
:1073F0004C02030008B5024B1B681B6A019308BDD1
:107400004C02030008B5024B1B685B6B019308BD7F
:107410006002030008B5024B1B681B6D019308BD99
:107420006002030008B5024B1B685B68019308BD4E
:107430002002030008B5024B1B685B69019308BD7D
:107440002002030008B5024B1B68DB6A019308BDEC
:107450002002030008B5034B1B68D3F88830019362
:1074600008BD00002002030008B5034B1B68D3F8D9
:107470009430019308BD00002002030008B5024BC0
:107480001B685B68019308BD4002030008B5024B0E
:107490001B689B68019308BD4002030008B5024BBE
:1074A0001B68DB68019308BD4002030008B5024B6E
:1074B0001B681B69019308BD4002030008B5024B1D
:1074C0001B685B69019308BD4002030008B5024BCD
:1074D0001B689B69019308BD4002030008B5024B7D
:1074E0001B68DB69019308BD4002030008B5024B2D
:1074F0001B681B6A019308BD4002030008B5024BDC
:107500001B681B6B019308BD4002030008B5024BCA
:107510001B685B6B019308BD4002030008B5024B7A
:107520001B681B6C019308BD4002030008B5024BA9
:107530001B685B6C019308BD4002030008B5024B59
:107540001B689B68019308BD4402030008B5024B09
:107550001B68DB6B019308BD4402030008B5024BB6
:107560001B681B68019308BD1C02030008B5024B91
:107570001B685B68019308BD1C02030008B5024B41
:107580001B68DB69019308BD1C02030008B5024BB0
:107590001B685B6A019308BD1C02030008B5024B1F
:1075A0001B68DB6B019308BD1C02030008B5024B8E
:1075B0001B681B6C019308BD1C02030008B5024B3D
:1075C0001B685B6C019308BD1C020300002240682D
:1075D0001146FFF78BBF002240681146FFF796BFA8
:1075E00040680022FFF78ABF4068002281F0010155
:1075F000FFF774BF002340681A461946FFF766BFBD
:10760000002340681A461946FFF758BF0022406819
:107610001146FFF74BBF002240681146FFF736BF07
:10762000406800220221FFF739BF002340681A4654
:10763000FFF724BF024B03225A60024A1A607047C8
:10764000C4E60320F09F0B000021FFF79BBE002142
:10765000FFF790BE10B5044608462170FFF76AFE9A
:1076600000236360204610BD13B504460078FFF781
:10767000EEFF58B9207801904FF6FF71FFF74AFEF0
:10768000019802B0BDE81040FFF7DEBF02B010BDA8
:107690000078FFF7D9BF0000400830B5186000241B
:1076A00018688842E5B206D90134082C02D0400897
:1076B0001860F5E70725024B5B5D137030BD00BF16
:1076C00024A00B002DE9F04306468FB000780C464D
:1076D000FFF7BDFF00281BDB35781422002109A825
:1076E00001F000FB0B23002209A92846ADF8243045
:1076F000FFF730FE9DF82D3013B19DF82C5055B199
:107700000027B946B846012523795DB1C3B10020F1
:107710000FB0BDE8F083DDF830809DF834909DF81F
:107720003570F1E7002B35D1A368434508D18DF8BA
:1077300020908DF82170BDF82020A3899A42E6D0D0
:107740000023A1688DF80F300A9804AB0DF10F02E9
:10775000FFF7A2FF217985B989B9A36843450ED304
:107760008DF820908DF82170BDF82020A3899A42D1
:1077700005D1049B434502D1C9E70029F9D1002373
:107780000193637B00939DF80F20237B3078FFF7F4
:10779000E9FDBCE7CDE900552B462A460121F5E776
:1077A00008B50078FFF7BEFDC0B208BD054B022248
:1077B0001A60054B054A9A600020C3E90000FFF7F4
:1077C00031BE00BFD8E60320CCE603200000FFFF57
:1077D00010B54368013B0446436063B903689B6886
:1077E0009847A368013BA3602BB923682046DB6858
:1077F000BDE81040184710BD024800230360FFF7A2
:1078000089BC00BFDCE60320F8B506460D468F189C
:107810000024BD420CD0336815F8011B9B6830462C
:107820009847031E01DB1C44F3E7002C08BF1C46ED
:107830002046F8BD13B50446084659B10191FDF73D
:10784000ADF823680199DB680246204602B0BDE826
:107850001040184702B010BD08B5FFF7EBFF08BD98
:1078600003689B68184738B50D210546FFF7F8FFF8
:107870000A2104462846FFF7F3FF204438BD38B5F7
:107880000546FFF7D7FF04462846FFF7ECFF2044E4
:1078900038BD30B58BB00023012A8DF8243098BF55
:1078A0000A2209AC0D46B1FBF2F101FB125303F0C1
:1078B000FF03092B94BF30333733DBB2AA4204F8FD
:1078C000013DEFD92146FFF7B5FF0BB030BD0000F9
:1078D0002DE9F74F55EC104B06460F4610EE102AD7
:1078E00010EE100A2B462946FCF7F0FF40B1534931
:1078F0003046FFF79FFF8246504603B0BDE8F08F49
:1079000025F000494E4B4FF0FF3220464946FCF728
:10791000DDFF48B94A4B4FF0FF3220464946FCF79D
:10792000B7FF08B94749E3E7474B4FF060422046AD
:107930002946FCF7C1FF08B14449D9E7444B4FF051
:10794000604220462946FCF799FF0028F4D1002226
:10795000002320462946FCF791FFD0B12D21304667
:10796000FFF77EFF05F1004382461D463949DFF8E7
:10797000EC904FF0000B00204FF000085FFA8BF303
:107980009F4208D942464B46FCF730FE0BF1010BF3
:10799000F4E78246EAE722462B46FCF747FB0D4612
:1079A0000446FCF7D1FF8046FCF77CFC02460B4600
:1079B00020462946FCF738FB0A2204460D4630468D
:1079C0004146FFF766FF8244002F95D02249DFF839
:1079D0008C903046FFF72EFF4FF000088244002FB6
:1079E0008AD042464B4620462946FCF7D5FC044641
:1079F0000D46FCF781FFB0F1000B1CDA2D2130465B
:107A0000FFF72EFFCBF1000103460A223046019317
:107A1000FFF73FFF019B184482445846FCF752FC95
:107A200002460B4620462946FCF7FEFA013F044673
:107A30000D46FFB2D3E759460023E6E734A00B001A
:107A4000FFFFEF7F38A00B00FFFFEF413CA00B00D2
:107A5000FFFFEFC10000E03F40A00B00000024400A
:107A6000C9B2FFF735BF2DE9F04186B000AF05463A
:107A70000E46381D142114463B60FFF787FD13287E
:107A80000ED8391D2846FFF7D5FE04461EB12846FC
:107A9000FFF7E9FE044420461837BD46BDE8F081F3
:107AA00000F1080323F00703E846ADEB030D22467F
:107AB000411C3B686846FFF769FD69462846FFF7A9
:107AC000B9FE0446C546E1E710B50446FFF7DAFA09
:107AD000E060236820465B699847002808DAFFF7D2
:107AE000D1FAE368C01AA3689842F2D34FF0FF308E
:107AF00010BD2DE9F04107460C468E180D46B542E3
:107B0000A5EB040807D03846FFF7DEFF031E02DBB3
:107B100005F8013BF3E74046BDE8F081014B024A1E
:107B20001A607047E0E6032042A00B00024B1A687F
:107B3000024B1A60704700BF1CE50320E4E60320F7
:107B40000021FFF777BC000010B5044B036004462A
:107B5000806908B1FFF73CFE204610BD3CA10B0038
:107B600010B50446FFF7F0FF20461C21FCF75DFF2F
:107B7000204610BD014B00229A607047E8E60320C2
:107B8000014B1860704700BF20E5032008B50B4B80
:107B900043B100F07DF903681B699847002801DDB7
:107BA000AFF30080064B43B100F008FF03681B6988
:107BB0009847002801DDAFF3008008BD00000000F9
:107BC0000000000008B5FFF7E1FFFFF75BFA014B8B
:107BD000186008BD40E703200548064A064908B575
:107BE000121A01F071F8054B054A1A6008BD00BF72
:107BF00000F4032004F403203CA50B0000F4032050
:107C00001E1C279A07B5002300931A466FF07701D0
:107C1000FFF72AFC03B05DF804FB000007B54388BA
:107C20000A2B08D0502B0BD1094B1B684BB103B06A
:107C30005DF804EB1847FFF7E5FF03B05DF804FBC0
:107C4000002300931A466FF07701FFF70DFCF4E76D
:107C5000FCE6032010B512480021FFF7AFFC114BE2
:107C60001A68114B9A42114B0CBF012200221A7064
:107C700001D0FFF7B1FFFFF7F5F9044601F03AF83C
:107C80000B4B13B12046AFF3008000210848FFF7EB
:107C90005DFCBDE8104007480021FFF7DBBB00BFDB
:107CA000817B0B0000F403201E1C279AF8E60320BA
:107CB000000000001D7C0B00704710B51821044621
:107CC000FCF7B3FE204610BDF0B5037D062B8DB04A
:107CD0000E4600F104074FF0000412D000F1080531
:107CE00015F8011D0A223046FFF7D3FDAF420444C8
:107CF00019D0002CF4D02E213046FFF7B1FD0444FA
:107D0000EEE72F236A4639460A208DF80040FFF738
:107D100011FA6846FCF742FE33680246DB686946A2
:107D200030469847044620460DB0F0BD10B5054BCF
:107D30000446112240F8043B002100F0D3FF204606
:107D400010BD00BF6CA00B000346074A10B543F8F6
:107D5000042B01F1100251F8044B43F8044B9142FB
:107D6000F9D10A781A7010BD6CA00B00037D042BAA
:107D700004D14068003818BF01207047062B07D196
:107D800043683BB983682BB9C3681BB90069F1E745
:107D9000002070470120704710B59DF8084044EA64
:107DA000032343EA024242EA01610423416003756E
:107DB00010BD000007B5064B0360CB7800938B78AD
:107DC0004A780978FFF7E8FF03B05DF804FB00BFCD
:107DD0006CA00B00417470477047704708B50021D4
:107DE000007CFFF7F7FA40EAE07008BD08B5012112
:107DF000007CFFF7EFFA40EAE07008BD08B5007CB0
:107E0000FFF7E0FA20EAE07008BD08B5007CFFF754
:107E1000D1FA20EAE07008BD13B50446007C019158
:107E2000FFF7D0FA0028019901DC607C20B1207CAA
:107E3000FFF7D8FA20EAE07002B010BD007CFFF72F
:107E4000D9BA10B514210446FCF7EFFD204610BD49
:107E500010B54FF47A73044608460021C4E90113B3
:107E6000044B23600123207463741146FFF792FAD8
:107E7000204610BD80A00B00007C0022FFF792BAC4
:107E800010B514220446002100F02CFF204610BD3E
:107E900010B50F4C88B003A8FFF7F2FF2178BFF3AD
:107EA0005B8F11F001010FD120460191FCF7CCFD51
:107EB000019948B103AA0748FFF7CAFF2046FCF71B
:107EC000C8FD054800F0F2FE024808B010BD00BF32
:107ED00000E7032004E70320D97D0B0070474174BD
:107EE000704708B5007CFFF775F920EAE07008BD1F
:107EF00008B5007CFFF746F920EAE07008BD08B538
:107F0000007CFFF74FF940EAE07008BD08B5007C3F
:107F1000FFF740F940EAE07008BD007CFFF74AB97E
:107F200037B5457C04462DB1207C03B0BDE8304018
:107F3000FFF720B9007C0191FFF74CF90028019967
:107F4000F2DC284603B030BD10B514210446FCF71E
:107F50006CFD204610BD000010B54FF47A73044646
:107F6000084611460022C4E90123044B2360012383
:107F700020746374FFF736F9204610BDB0A00B00E3
:107F80007047F8B5064615460C468F18BC4206D019
:107F9000336814F8011B9B6830469847F6E728467B
:107FA000F8BD007C0022FFF745B9007C0021FFF7F7
:107FB00049B9007C0021FFF74DB9007C0021FFF793
:107FC00051B9007C0021FFF755B910B514210446C2
:107FD000FCF72BFD204610BD38B5044615464FF47E
:107FE0007A730022C4E90123094B217408462360F7
:107FF0002946FFF74FF9BF3008D16B69DB0705D57C
:108000006868FFF7B3FAE868FFF7B0FA204638BDB2
:10801000E0A00B00007C0022FFF7ECB80023007CFE
:108020001A461946FFF7EEB87FB500221423CDE9B2
:108030000122ADF804300B788DF808304B680393BB
:10804000CB680493007C0B7A059301A9FFF72AF90A
:1080500007B05DF804FB1FB5003B8DF800104FF032
:108060006401039118BF0123694601928DF808301D
:10807000FFF7DAFF05B05DF804FB0123FFF7EBBF64
:10808000007C0022FFF7C6B8C9B2FFF7F9BF007C39
:108090000022FFF7C7B80121FFF7F9BF13B5036846
:1080A0008DF80710DC6B01224FF0FF330DF1070153
:1080B000A04702B010BD10B40368DC6B4FF0FF3373
:1080C000A4465DF8044B604713B5134602688DF86B
:1080D0000710D46B0DF107010122A04702B010BDBB
:1080E00010B54369B3F88620B3F884309A42044649
:1080F00008D06369B3F88420511CA3F8841013449A
:10810000187910BD03681B6998470028F1D14FF01A
:10811000FF30F6E7704743691868C043C00F7047E7
:1081200070470000064B994210B500F10C0405D0D1
:10813000084600F0A9FC002808BF0024204610BD16
:108140002CA00B0010B5AC210446FCF76EFC2046B9
:1081500010BDAC21FCF769BC2DE9F0414FF00008DF
:1081600086B01C46C0F8048005460E4617464146B8
:10817000102202A800F0B6FD631C09D04FF47A73F8
:10818000B4FBF3F203FB1244CDE902285C430494F0
:10819000686910230093006802AB41F2050240F6C3
:1081A000FF71FFF787F8002807DAFFF7F7F9036890
:1081B0006B60002006B0BDE8F081686900230068AC
:1081C0003A463146FFF796F8031EEEDB1846F1E714
:1081D00030B587B0044601AD6846FFF7EBFD0FCD23
:1081E00004340FC42B68237007B030BD70B54D69DF
:1081F000054B04468C3544F8043B06460FCD0FC4AE
:108200002B682370304670BD6CA00B002DE9F04345
:108210009846036893B00D460024DB6A064617466D
:10822000984728466B46224621460094FEF7CAFE30
:108230000546002863D1009B002B4BD05B69002BC7
:1082400048D006A8FFF772FD009B5C696378022B9B
:1082500004D1211D06A8FFF7BBFF26E00A2B24D17D
:108260001122294601A800F03DFDA368002B38D05B
:1082700004F108030DF1040C1834186859686246BB
:1082800003C20833A3429446F7D1062301A90CA8E0
:108290008DF81430FFF758FD0DF1340CBCE80F00D9
:1082A00007AC0FC4DCF80030237006A8FFF75EFDB2
:1082B00080B1336807ADD3F82090124B0C930FCDEB
:1082C0000DAC0FC42B6823703A4643460CA93046C8
:1082D000C84705460098FEF76DFE284613B0BDE876
:1082E000F083E368002BC3D14FF6FF70D4F81090F1
:1082F000FEF728FF8145BBD104F11401AAE725460A
:10830000E8E700BF6CA00B0038B543691A68002A83
:10831000054610DAB3F88620B3F884309A420AD1C1
:1083200003681B699847044628B92B682846DB6A0E
:108330009847204638BD0120FCE710B54369B3F8E3
:108340008620B3F884309A42044605D06369B3F8B6
:1083500084201344187910BD03681B6998470028CE
:10836000F4D14FF0FF30F6E7F8B543691746B3F89C
:108370008620B3F884309A4205460E4616D06969C5
:10838000B1F88430B1F88640E41ABC4228BF3C46BC
:10839000043322461944304600F096FC6A69B2F86C
:1083A00084302344A2F884302046F8BD03681B695A
:1083B00098470028E3D14FF0FF34F5E742690023E6
:1083C000A2F884304269A2F8863070472DE9F04166
:1083D0001F4603680C46DB6A8AB005461646984776
:1083E000237DD5F81480042B0CBF02200A2006221E
:1083F0000121FEF787FFC8F800006B691B68002B9E
:1084000008DA2B682846DB6A0024984720460AB021
:10841000BDE8F0812846FFF7D1FFB7B1002303A9DB
:10842000F8B20393ADF81030FEF714FE0028E8D13F
:10843000686906230093006803AB41F20B0240F623
:10844000FF71FEF737FF0028DBD11C22002103A8B3
:1084500000F048FC237D042B1DD14FF407733046F8
:10846000ADF80C30FEF77EFEADF80E006068FEF74A
:1084700069FE04906B691C22186803A9FEF72AFFA5
:108480000028BED104340FCC6D698C350FC523682C
:108490002B700124BAE740F61C233046ADF80C30AF
:1084A000FEF760FE05AEADF80E00231D04F11407C3
:1084B00018685968324603C20833BB421646F7D1E2
:1084C000D8E7000030B54269B2F886308BB0044678
:1084D0002BB1B2F884209A4201D1FFF76FFF616996
:1084E0000868002818DBB1F886507F2D14D80431B5
:1084F0000823C5F180022944FEF7F4FE002813DDAD
:108500006369B3F886200AB9A3F884206369B3F8D5
:1085100086201044A3F886006369B3F88600B3F898
:108520008430C01A0BB030BDFFF738F803680B2B4E
:10853000F2D0FFF733F803680B2BEDD02023002592
:10854000CDE90235FFF72AF803680193084B094982
:10855000009302AA2B463220FEF75CFF636918687D
:10856000FEF7B0FE63694FF0FF321A60D4E700BF38
:1085700007A10B0000A10B0010B543690446186861
:10858000002801DBFEF79EFE63694FF0FF321A60A0
:108590006069112200218C3000F0A4FB2046BDE868
:1085A0001040FFF70BBF10B5002304460160C0F870
:1085B00084308830FFF7BAFB204610BD73B5002326
:1085C0004FF47A72C0E901320E4A036102604361DE
:1085D0000446AC200191FCF724FA051E05F10C06B7
:1085E00008D00123C5E90133074B01992B603046C0
:1085F000FFF7D9FF2046C4E90565FFF7DFFE02B0AB
:1086000070BD00BF3CA10B0020A10B0010B54FF0C6
:10861000FF310446FFF7D2FF204610BD10B50446D7
:108620000068002801DBFEF74DFE204610BD0C302F
:10863000FFF7F4BF002240681146FEF737BF002263
:1086400040681146FEF752BF002240681146FEF70F
:108650005DBF40680022FEF751BF4068002281F0F4
:108660000101FEF73BBF002340681A461946FEF79A
:108670002DBF002340681A461946FEF71FBF00228F
:1086800040681146FEF702BF406800220221FEF753
:1086900005BF002340681A46FEF7F0BE024B0422D5
:1086A0005A60024A1A60704718E7032088A10B003D
:1086B000002340681A46FEF7E1BE4068002202210E
:1086C000FEF7ECBE002240681146FEF7DFBE002236
:1086D00040681146FEF7EABE002340681A46194674
:1086E000FEF7ECBE002340681A461946FEF7EEBEC0
:1086F00040680021FEF712BF40680021FEF716BF58
:108700004068002281F00101FEF7E8BE40680022C7
:10871000FEF7F4BE002240681146FEF7F7BE0022C5
:1087200040681146FEF7E2BE2DE9F04395B01446CD
:108730000D460746FFF7FAFA00211C220DA800910A
:1087400000F0D0FA40230C9320466B460CAA00217F
:10875000FEF738FC044600284BD102460121686828
:10876000FEF7A4FE0221804622466868FEF79EFEC0
:10877000009E81462146002E3BD0002939D17368E6
:10878000022B03D00A2B11D0F669F4E7B8F1000FE1
:10879000FAD0716906A8043107ADFFF70BFB0FCDC6
:1087A0003C1D0FC42B6823704146EDE7B9F1000F63
:1087B000EAD07469102201A800F094FA06238DF81B
:1087C000143001AD04F108031834186859682A46BA
:1087D00003C20833A3421546F7D101A906A807AD85
:1087E000FFF7B2FA0FCD3C1D0FC42B68237049462A
:1087F000CAE70098FEF7DEFB384615B0BDE8F08307
:10880000024B034A1A6000225A60704720E7032097
:10881000C4A10B00232813B502D9002002B010BD5B
:10882000A0F10B03022B1AD8174C2178BFF35B8FF2
:1088300011F001010BD120460191FCF705F90199D6
:1088400028B11248FEF706FF2046FCF702F90F4B4D
:108850001878FEF777FD0028DFD10120DEE7012838
:1088600009D800F0EBF80021007CFEF70BFD80F04A
:108870000100C0B2D2E709380128EED800F09EF816
:10888000007CFEF79FFCF2E7B8E60320BCE603207D
:10889000232838B504460D460AD8FF2908D0FFF72B
:1088A000B9FF28B129462046BDE83840FEF79ABBFB
:1088B00038BD38B504460D46FEF79CFBFF2810D0A6
:1088C000062804D84D2323FA00F0C30709D4204614
:1088D000FFF7A0FF28B129462046BDE83840FEF743
:1088E00091BB38BD10B50446FEF784FB031FDBB215
:1088F000012B08D92046FFF78DFF20B12046BDE8A7
:108900001040FEF787BB002010BD0D2810B50446AF
:108910009CBF0E34A4B22046FFF77CFF50B1032168
:108920002046FEF757FB032804D12046BDE810403F
:10893000FEF780BB002010BD38B504460D46FFF79A
:1089400069FFF0B104212046FEF744FB042805D15D
:10895000A9B22046BDE83840FEF764BB022120469C
:10896000FEF738FB02280CD12046FEF743FB012816
:1089700001D0042805D129462046BDE83840FEF73D
:1089800061BB38BD7047000038B5044614252A463F
:10899000002100F0A7F925804025074925812846B8
:1089A000258200F06FF804496060284600F06AF8FC
:1089B000E060204638BD00BFF8A10B0030B50E4D79
:1089C0002978BFF35B8F11F0010487B011D12846DD
:1089D000FCF73AF868B101A8FFF7D6FF01AA2146D3
:1089E0000648FFF7B9FA2846FCF733F8044800F0C8
:1089F0005DF9024807B030BD28E703202CE70320CB
:108A000085890B007047000038B50A4B03600123CD
:108A1000044643610849202000F034F820256060B6
:108A20000549A560284600F02DF8C4E90305204655
:108A300038BD00BF18000100F8A10B0030B50E4D85
:108A40002978BFF35B8F11F0010487B011D128465C
:108A5000FBF7FAFF68B16846FFF7D6FF6A46214682
:108A60000648FFF7B9FA2846FBF7F3FF044800F081
:108A70001DF9024807B030BD44E7032048E7032052
:108A8000058A0B00FBF7CFBF014900F0F9B800BF22
:108A900014A20B007FB500241023CDE90234036833
:108AA00015469E6912686B46CDE90044B0479DF8B3
:108AB000043003F00603062B03BF009B2B6001204C
:108AC000204604B070BD0098904214BF01200620DB
:108AD0007047000010B5034B0360044600F0CDF86A
:108AE000204610BD54A20B0010B50446FFF7F2FF5C
:108AF00020460821FBF799FF204610BD2DE9F041E3
:108B00001F46DDE90834DDF818809845064615460D
:108B100007D1079900F0B4F818B165710020BDE8DD
:108B2000F0813946304600F0ABF80028F6D001233A
:108B3000C4F800802571A371F0E738B515461C46CE
:108B400000F09EF820B10823E3600623256023711E
:108B500038BD73B505460C4601921E4600F090F8EC
:108B600050B9032E08D82368019A5B69294620462C
:108B700002B0BDE87040184702B070BD10B5034B9D
:108B800003600446FFF7A6FF204610BDB4A20B0009
:108B900010B50446FFF7F2FF20460C21FBF745FF16
:108BA000204610BDF7B5089F974205460E4614466D
:108BB0000AD0A86802680897156A31462246AC4672
:108BC00003B0BDE8F04060471946019300F058F843
:108BD000019B0028EDD0062003B0F0BD2DE9F14F38
:108BE0000D461946DDE90A4BDDE90CA6814617461C
:108BF000984600F045F890B1002D3460377109DBDC
:108C000061198A450CBF06210121B171002001B014
:108C1000BDE8F08F0235F9D10123B371F6E7544571
:108C200006D15946484600F02BF808B17771EDE7B8
:108C3000D9F808000368CDE90CA6CDE90A4BDC6938
:108C40003A4643462946A44601B0BDE8F04F604786
:108C50002DE9F04107460C4615461E46FFF76DFF0D
:108C600048B9B86803689F692A4633462146BC461E
:108C7000BDE8F0416047BDE8F081704700207047D3
:108C8000814208B50ED0406803782A2B0CD0496881
:108C90000B782A2B08BF0131FBF776FEB0FA80F083
:108CA000400908BD0120FCE70020FAE70023014647
:108CB0001A46184600F0ECB80A22002100F0DEB88F
:108CC0000A22002100F0DAB80A44914200F1FF3391
:108CD00000D1704710B511F8014B03F8014F9142D4
:108CE000F9D110BD02440346934200D1704703F806
:108CF000011BF9E738B5104B1D68AB6B0446B3B9DF
:108D00001820FEF72BFC0246A86320B90B4B0C4839
:108D10004221FEF74BFC0B490B4BC0E900130B4BF8
:108D200083600B23838100210120C2E90401AB6B26
:108D300000221C615A6138BD20E50320EDA20B0022
:108D400004A30B000E33CDAB34126DE6ECDE050050
:108D500010B50139034632B111F8014F03F8014B48
:108D6000013A002CF7D11A440021934200D110BDE2
:108D700003F8011BF9E70000012B2DE9F04701D0B2
:108D8000242B06D9FEF70AFC162303600020BDE859
:108D9000F087DFF8E4C00D462E4615F8014B14F8B5
:108DA0000C7017F00807F7D12D2C32D12C78012741
:108DB000B51C002B5BD0102B09D1302C07D12C789F
:108DC00004F0DF04582C4DD16C781023023507F1E4
:108DD000004808F1FF384FF0000CB8FBF3F9664685
:108DE00003FB198AA4F1300EBEF1090F16D87446A0
:108DF000A34224DDBCF1000F1EDBB1451CD301D121
:108E0000A24519DB06FB03464FF0010C15F8014B98
:108E1000E8E72B2C04BF2C78B51CCAE7A4F1410E5F
:108E2000BEF1190F01D8373CE2E7A4F1610EBEF1A3
:108E3000190F04D8573CDBE74FF0FF3CE6E7BCF1E5
:108E4000000F05DA22230360464642B930469EE70A
:108E500007B17642002AF9D0BCF1000F00D0691E9C
:108E60001160F3E73024002BB1D10823AFE7302C99
:108E7000A5D00A23ABE700BF82A30B0013460A4626
:108E8000014602480068FFF777BF00BF20E50320D6
:108E90002DE9F843DFF8B8800646D8F800001F46F1
:108EA0000D46914600F056F8254B1C6834B9254C08
:108EB0001C60254B13B11B68C4F8883063681F2BF6
:108EC00007DDD8F8000000F047F84FF0FF30BDE8AC
:108ED000F8834EB3D4F8880088B91C4B23B9D8F86E
:108EE000000000F038F8F0E74FF48470FEF736FB2E
:108EF0000028F4D00023C0E94033C4F88800636838
:108F000040F8239001229A4000EB8301D0F8003111
:108F10001343C0F80031022EC1F8807002BFD0F8B0
:108F200004311343C0F804316368D8F800005A1CB8
:108F30000233626044F8235000F00EF80020C6E7C8
:108F4000E8E703205CE70320000000005D750B00EC
:108F500084E503207047704770470000AD490B005F
:108F6000E9490B00114A0B00154A0B0000000000F4
:108F700043616C6C206F6E2070757265207669722B
:108F80007475616C00256900256C69004C4F434B7A
:108F900020444F574E2100696E006F757400707742
:108FA0006D00647700617700746D706C00544D50F3
:108FB0004C323053424B476F35550076770025329F
:108FC0002E37660043686F6F7365206C696D697436
:108FD000200072616E67653A20302C3430393520BC
:108FE000002C200054454D504552415455524500E7
:108FF00043203A2000460072616E67656368616EC7
:109000006765004C6E6B5435684D4F677038304261
:109010007658414179755A5F45624F7539556F44AD
:1090200049505000626C796E6B2E636C6F756400F2
:109030000000000000000000154B0B00694B0B0006
:10904000654A0B00626C6E6B696E66007665720035
:10905000312E312E3000682D626561740034350088
:10906000627566662D696E00313032340064657653
:10907000005061727469636C65204172676F6E00A5
:1090800066772D7479706500544D504C32305342E0
:109090004B476F3555006275696C64004A756C20EA
:1090A000203420323032332031373A33363A3231BD
:1090B00000000064656661756C7420004D534200C9
:1090C0004C5342003C53504953657474696E677346
:1090D0002064656661756C743E003C53504953656D
:1090E0007474696E67732025732575202573204D70
:1090F0004F444525753E0000000000003E5B4F5B7D
:109100003E3E6B4F6B3E1C3E7C3E1C183C7E3C182A
:109110001C577D571C1C5E7F5E1C00183C1800FF0E
:10912000E7C3E7FF0018241800FFE7DBE7FF30483C
:109130003A060E2629792926407F050507407F0536
:10914000253F5A3CE73C5A7F3E1C1C08081C1C3E2D
:109150007F14227F22145F5F005F5F06097F017F1B
:10916000006689956A606060606094A2FFA29408BE
:10917000047E040810207E201008082A1C08081C01
:109180002A08081E101010100C1E0C1E0C30383E41
:109190003830060E3E0E06000000000000005F00A2
:1091A000000007000700147F147F14242A7F2A126E
:1091B0002313086462364956205000080703000054
:1091C0001C2241000041221C002A1C7F1C2A080886
:1091D0003E08080080703000080808080800006099
:1091E000600020100804023E5149453E00427F4085
:1091F0000072494949462141494D331814127F10E4
:1092000027454545393C4A4949314121110907362D
:1092100049494936464949291E00001400000040CA
:1092200034000000081422411414141414004122C4
:10923000140802015909063E415D594E7C12111273
:109240007C7F494949363E414141227F4141413E6F
:109250007F494949417F090909013E414151737FD5
:109260000808087F00417F41002040413F017F08FE
:109270001422417F404040407F021C027F7F04084F
:10928000107F3E4141413E7F090909063E4151217F
:109290005E7F09192946264949493203017F0103A6
:1092A0003F4040403F1F2040201F3F4038403F6329
:1092B0001408146303047804036159494D43007F83
:1092C0004141410204081020004141417F04020154
:1092D00002044040404040000307080020545478F6
:1092E000407F284444383844444428384444287F44
:1092F000385454541800087E090218A4A49C787F9E
:109300000804047800447D40002040403D007F1068
:1093100028440000417F40007C047804787C0804E5
:1093200004783844444438FC182424181824241899
:10933000FC7C08040408485454542404043F442486
:109340003C4040207C1C2040201C3C4030403C44A1
:10935000281028444C9090907C4464544C4400085D
:10936000364100000077000000413608000201028B
:1093700004023C2623263C1EA1A161123A40402053
:109380007A385454555921555579412254547842CC
:10939000215554784020545579400C1E5272123990
:1093A0005555555939545454593955545458000049
:1093B000457C410002457D420001457C407D121103
:1093C000127DF0282528F07C545545002054547C0B
:1093D000547C0A097F4932494949323A4444443A63
:1093E000324A4848303A4141217A3A424020780096
:1093F0009DA0A07D3D4242423D3D4040403D3C2439
:10940000FF2424487E4943662B2FFC2F2BFF09297C
:10941000F620C0887E090320545479410000447D21
:10942000413048484A32384040227A007A0A0A726B
:109430007D0D19317D2629292F2826292929263015
:10944000484D4020380808080808080808382F1038
:10945000C8ACBA2F102834FA00007B000008142A88
:10946000142222142A14085500550055AA55AA554D
:10947000AAFF55FF55FF000000FF00101010FF006D
:10948000141414FF001010FF00FF1010F010F0145F
:109490001414FC001414F700FF0000FF00FF141464
:1094A000F404FC141417101F10101F101F141414B0
:1094B0001F00101010F0000000001F101010101FEF
:1094C00010101010F010000000FF101010101010FD
:1094D000101010FF10000000FF140000FF00FF003C
:1094E000001F10170000FC04F414141710171414B4
:1094F000F404F40000FF00F714141414141414F707
:1095000000F7141414171410101F101F141414F45F
:10951000141010F010F000001F101F0000001F14A6
:10952000000000FC140000F010F01010FF10FF14F9
:109530001414FF141010101F00000000F010FFFFA3
:10954000FFFFFFF0F0F0F0F0FFFFFF000000000071
:10955000FFFF0F0F0F0F0F3844443844FC4A4A4AAC
:10956000347E02020606027E027E02635549416392
:109570003844443C04407E201E2006027E020299AC
:10958000A5E7A5991C2A492A1C4C7201724C304A45
:109590004D4D303048784830BC625A463D3E4949CE
:1095A00049007E0101017E2A2A2A2A2A44445F4476
:1095B0004440514A444040444A51400000FF0103A6
:1095C000E080FF000008086B6B0836123624360670
:1095D0000F090F060000181800000010100030409E
:1095E000FF0101001F01011E00191D1712003C3C64
:1095F0003C3C0000000000000000000000000000F3
:109600000000000000000000E9600B0009780B007A
:10961000314A0B00EF5A0B00F15A0B00235B0B0091
:10962000FF5A0B00115B0B00315A0B00EF5A0B0075
:109630001B5D0B00195D0B003B5B0B00795B0B00A6
:10964000B35B0B00F95B0B00155C0B00995C0B0026
:109650000000000000000000F9610B0019620B001F
:10966000E9600B0009780B00B5660B00EF5A0B00A0
:10967000F15A0B00235B0B00FF5A0B00115B0B0030
:10968000315A0B00EF5A0B001B5D0B0053680B00A7
:10969000FB6D0B00AD6D0B00B35B0B00F95B0B00BA
:1096A000155C0B00995C0B0000000000000000003E
:1096B000DD590B00B1590B00B3590B00000000003D
:1096C0000001800000000000000000000380000096
:1096D0000000000000000007C000000000000000C3
:1096E000000007C00000000000000000000FC000E4
:1096F00000000000000000001FE00000000000006B
:109700000000001FE00000000000000000003FE03B
:109710000000000000000000003FF000000000001A
:10972000000000007FF0000000000000001FF87F34
:10973000F0000000000000003FFE7FF0000000008D
:109740000000003FFF7FF0000000000000001FFF4E
:10975000FBE0000000000000000FFFF9FFC0000068
:10976000000000000FFFF9FFF800000000000007F4
:10977000FFF1FFFF00000000000003FC73FFFF800B
:10978000000000000001FE3FFFFF8000000000001D
:1097900000FF1E0FFF000000000000007FFE1FFC06
:1097A000000000000000003FFFFFF8000000000084
:1097B00000000FDFFFE0000000000000001F19FFA5
:1097C000C0000000000000003F3CFF00000000005F
:1097D0000000007E7CF800000000000000007FFE1A
:1097E0007C0000000000000000FFFFFC0000000003
:1097F00000000000FFFFFE0000000000000000FF6E
:10980000FFFE0000000000000001FFEFFE0000006E
:109810000000000001FFCFFE000000000000000378
:10982000FF07FE0000000000000003FC07FE000030
:10983000000000000003F003FE0000000000000034
:10984000018000FE000000000000000000007E001B
:109850000000000000000000003E000000000000CA
:10986000000000000C000000000000078000FC0069
:109870000003C0000000078001FC000003C00000DE
:1098800000078001FC000003C0000000078001E029
:109890000000001E000000078001E00000001E0024
:1098A0007FE3F79FF9FDE7787BDFC0FFF7FFBFFDA0
:1098B000FDFF787BDFC0FFF7FFBFFDFDFF787BDF9B
:1098C000C0F0F787BC3DE1FF787BDE00F0F787BC96
:1098D0003DE1F0787BDE0000F787803DE1E0787BBA
:1098E000DE007FF7879FFDE1E0787BDE00FFF787F2
:1098F000BFFDE1E0787BDE00F0F787BC3DE1E0787A
:109900007BDE00F0F787BC3DE1E0787BDE00F0F71E
:1099100087BC3DE1E0787BDE00FFF7FFBFFDE1E0C3
:109920007FFBDFC0FFF7FFBFFDE1E07FFBDFC07C17
:10993000F3F39F3DE1E03E7BCFC00000000000005C
:109940000000000000FFFFFFFFFFFFFFFFFFFFC061
:10995000FFFFFFFFFD68DB111A31C0FFFFFFFFFDB6
:109960002B5AFB6AEFC0FFFFFFFFFD4B5B3B1A3337
:10997000C0FFFFFFFFFD6B5BDB6AFDC00000600006
:1099800000000000000000000000000000E00000F7
:10999000000000000000000000000001E0000000E6
:1099A0000000000000000000000001F000000000C6
:1099B00000000000000000000003F00000000000B4
:1099C000000000000000000007F0000000000000A0
:1099D0000000000000000007F80000000000000088
:1099E0000000000000000FF800000003C0007E002F
:1099F0000001E0007F0FF800000003C000FE00003F
:109A000001E000FFEFF800000003C000FE000001CD
:109A1000E000FFFFF800000003C000F00000000FAE
:109A2000007FFE7FC0000003C000F00000000F00B8
:109A30003FFE7FF83FF1FBCFFCFEF3BC3DEFE01FA4
:109A4000FE7FFF7FFBFFDFFEFEFFBC3DEFE01FC69A
:109A5000FFFF7FFBFFDFFEFEFFBC3DEFE00FE3C734
:109A6000FE787BC3DE1EF0FFBC3DEF0007FF87FCE6
:109A7000787BC3DE1EF0F83C3DEF0001FFFFF000F5
:109A80007BC3C01EF0F03C3DEF0001F37FE03FFBE5
:109A9000C3CFFEF0F03C3DEF0003E33F807FFBC30C
:109AA000DFFEF0F03C3DEF0007E73C00787BC3DED3
:109AB0001EF0F03C3DEF0007FFBE00787BC3DE1ECA
:109AC000F0F03C3DEF0007FFFE00787BC3DE1EF0A8
:109AD000F03C3DEF000FFFFE007FFBFFDFFEF0F0EC
